{
  "_format": "hh-sol-artifact-1",
  "contractName": "Lossy",
  "sourceName": "contracts/Lossy.sol",
  "abi": [
    {
      "inputs": [
        {
          "internalType": "uint256",
          "name": "_frequency",
          "type": "uint256"
        },
        {
          "internalType": "address payable",
          "name": "_recipient",
          "type": "address"
        }
      ],
      "stateMutability": "nonpayable",
      "type": "constructor"
    },
    {
      "inputs": [],
      "name": "checkIn",
      "outputs": [],
      "stateMutability": "nonpayable",
      "type": "function"
    },
    {
      "inputs": [],
      "name": "frequency",
      "outputs": [
        {
          "internalType": "uint256",
          "name": "",
          "type": "uint256"
        }
      ],
      "stateMutability": "view",
      "type": "function"
    },
    {
      "inputs": [],
      "name": "increaseRate",
      "outputs": [
        {
          "internalType": "uint256",
          "name": "",
          "type": "uint256"
        }
      ],
      "stateMutability": "view",
      "type": "function"
    },
    {
      "inputs": [],
      "name": "lastCheckIn",
      "outputs": [
        {
          "internalType": "uint256",
          "name": "",
          "type": "uint256"
        }
      ],
      "stateMutability": "view",
      "type": "function"
    },
    {
      "inputs": [],
      "name": "plan",
      "outputs": [
        {
          "internalType": "string",
          "name": "",
          "type": "string"
        }
      ],
      "stateMutability": "view",
      "type": "function"
    },
    {
      "inputs": [],
      "name": "rate",
      "outputs": [
        {
          "internalType": "uint256",
          "name": "",
          "type": "uint256"
        }
      ],
      "stateMutability": "view",
      "type": "function"
    },
    {
      "inputs": [],
      "name": "recipient",
      "outputs": [
        {
          "internalType": "address payable",
          "name": "",
          "type": "address"
        }
      ],
      "stateMutability": "view",
      "type": "function"
    },
    {
      "inputs": [
        {
          "internalType": "uint256",
          "name": "_freq",
          "type": "uint256"
        }
      ],
      "name": "setFrequency",
      "outputs": [],
      "stateMutability": "nonpayable",
      "type": "function"
    },
    {
      "inputs": [
        {
          "internalType": "string",
          "name": "planType",
          "type": "string"
        }
      ],
      "name": "setPlan",
      "outputs": [],
      "stateMutability": "nonpayable",
      "type": "function"
    },
    {
      "inputs": [
        {
          "internalType": "address payable",
          "name": "_recipient",
          "type": "address"
        }
      ],
      "name": "setRecipient",
      "outputs": [],
      "stateMutability": "nonpayable",
      "type": "function"
    },
    {
      "inputs": [],
      "name": "startDate",
      "outputs": [
        {
          "internalType": "uint256",
          "name": "",
          "type": "uint256"
        }
      ],
      "stateMutability": "view",
      "type": "function"
    },
    {
      "inputs": [],
      "name": "userCheckedin",
      "outputs": [
        {
          "internalType": "bool",
          "name": "",
          "type": "bool"
        }
      ],
      "stateMutability": "nonpayable",
      "type": "function"
    }
  ],
  "bytecode": "0x60806040523480156200001157600080fd5b5060405162000f1c38038062000f1c8339818101604052810190620000379190620000c3565b81600281905550426003819055504260048190555080600560006101000a81548173ffffffffffffffffffffffffffffffffffffffff021916908373ffffffffffffffffffffffffffffffffffffffff160217905550505062000176565b600081519050620000a68162000142565b92915050565b600081519050620000bd816200015c565b92915050565b60008060408385031215620000d757600080fd5b6000620000e785828601620000ac565b9250506020620000fa8582860162000095565b9150509250929050565b6000620001118262000118565b9050919050565b600073ffffffffffffffffffffffffffffffffffffffff82169050919050565b6000819050919050565b6200014d8162000104565b81146200015957600080fd5b50565b620001678162000138565b81146200017357600080fd5b50565b610d9680620001866000396000f3fe608060405234801561001057600080fd5b50600436106100b45760003560e01c806353e065711161007157806353e06571146101555780636086cea51461017357806366d003ac14610191578063db78dabd146101af578063ead50da3146101cd578063f426f03a146101eb576100b4565b80630b97bc86146100b9578063183ff085146100d75780632a4b122f146100e15780632c4e722e146100ff5780633bbed4a01461011d5780634a07fb4514610139575b600080fd5b6100c1610207565b6040516100ce9190610984565b60405180910390f35b6100df61020d565b005b6100e9610216565b6040516100f69190610984565b60405180910390f35b61010761021c565b6040516101149190610984565b60405180910390f35b61013760048036038101906101329190610743565b610222565b005b610153600480360381019061014e919061076c565b610266565b005b61015d61047f565b60405161016a9190610962565b60405180910390f35b61017b61050d565b6040516101889190610947565b60405180910390f35b6101996105d2565b6040516101a6919061092c565b60405180910390f35b6101b76105f8565b6040516101c49190610984565b60405180910390f35b6101d56105fe565b6040516101e29190610984565b60405180910390f35b610205600480360381019061020091906107ad565b610604565b005b60035481565b42600481905550565b60015481565b60005481565b80600560006101000a81548173ffffffffffffffffffffffffffffffffffffffff021916908373ffffffffffffffffffffffffffffffffffffffff16021790555050565b60405160200161027590610917565b604051602081830303815290604052805190602001208160405160200161029c91906108d6565b604051602081830303815290604052805190602001201415610318576040518060400160405280600581526020017f53484f52540000000000000000000000000000000000000000000000000000008152506006908051906020019061030392919061060e565b5060086000819055506002808190555061047c565b604051602001610327906108ed565b604051602081830303815290604052805190602001208160405160200161034e91906108d6565b6040516020818303038152906040528051906020012014156103cb576040518060400160405280600681526020017f4d454449554d0000000000000000000000000000000000000000000000000000815250600690805190602001906103b592919061060e565b506004600081905550600460028190555061047b565b6040516020016103da90610902565b604051602081830303815290604052805190602001208160405160200161040191906108d6565b60405160208183030381529060405280519060200120141561047a576040518060400160405280600481526020017f4c4f4e47000000000000000000000000000000000000000000000000000000008152506006908051906020019061046892919061060e565b50600260008190555060086002819055505b5b5b50565b6006805461048c90610b87565b80601f01602080910402602001604051908101604052809291908181526020018280546104b890610b87565b80156105055780601f106104da57610100808354040283529160200191610505565b820191906000526020600020905b8154815290600101906020018083116104e857829003601f168201915b505050505081565b6000806002546004546105209190610a1c565b90504281111561053b574260048190555060019150506105cf565b600047905060006064600054836105529190610aa3565b61055c9190610a72565b9050600560009054906101000a900473ffffffffffffffffffffffffffffffffffffffff1673ffffffffffffffffffffffffffffffffffffffff166108fc829081150290604051600060405180830381858888f193505050501580156105c6573d6000803e3d6000fd5b50600093505050505b90565b600560009054906101000a900473ffffffffffffffffffffffffffffffffffffffff1681565b60045481565b60025481565b8060028190555050565b82805461061a90610b87565b90600052602060002090601f01602090048101928261063c5760008555610683565b82601f1061065557805160ff1916838001178555610683565b82800160010185558215610683579182015b82811115610682578251825591602001919060010190610667565b5b5090506106909190610694565b5090565b5b808211156106ad576000816000905550600101610695565b5090565b60006106c46106bf846109c4565b61099f565b9050828152602081018484840111156106dc57600080fd5b6106e7848285610b45565b509392505050565b6000813590506106fe81610d32565b92915050565b600082601f83011261071557600080fd5b81356107258482602086016106b1565b91505092915050565b60008135905061073d81610d49565b92915050565b60006020828403121561075557600080fd5b6000610763848285016106ef565b91505092915050565b60006020828403121561077e57600080fd5b600082013567ffffffffffffffff81111561079857600080fd5b6107a484828501610704565b91505092915050565b6000602082840312156107bf57600080fd5b60006107cd8482850161072e565b91505092915050565b6107df81610afd565b82525050565b6107ee81610b0f565b82525050565b60006107ff826109f5565b6108098185610a00565b9350610819818560208601610b54565b61082281610ca6565b840191505092915050565b6000610838826109f5565b6108428185610a11565b9350610852818560208601610b54565b80840191505092915050565b600061086b600683610a11565b915061087682610cb7565b600682019050919050565b600061088e600483610a11565b915061089982610ce0565b600482019050919050565b60006108b1600583610a11565b91506108bc82610d09565b600582019050919050565b6108d081610b3b565b82525050565b60006108e2828461082d565b915081905092915050565b60006108f88261085e565b9150819050919050565b600061090d82610881565b9150819050919050565b6000610922826108a4565b9150819050919050565b600060208201905061094160008301846107d6565b92915050565b600060208201905061095c60008301846107e5565b92915050565b6000602082019050818103600083015261097c81846107f4565b905092915050565b600060208201905061099960008301846108c7565b92915050565b60006109a96109ba565b90506109b58282610bb9565b919050565b6000604051905090565b600067ffffffffffffffff8211156109df576109de610c77565b5b6109e882610ca6565b9050602081019050919050565b600081519050919050565b600082825260208201905092915050565b600081905092915050565b6000610a2782610b3b565b9150610a3283610b3b565b9250827fffffffffffffffffffffffffffffffffffffffffffffffffffffffffffffffff03821115610a6757610a66610bea565b5b828201905092915050565b6000610a7d82610b3b565b9150610a8883610b3b565b925082610a9857610a97610c19565b5b828204905092915050565b6000610aae82610b3b565b9150610ab983610b3b565b9250817fffffffffffffffffffffffffffffffffffffffffffffffffffffffffffffffff0483118215151615610af257610af1610bea565b5b828202905092915050565b6000610b0882610b1b565b9050919050565b60008115159050919050565b600073ffffffffffffffffffffffffffffffffffffffff82169050919050565b6000819050919050565b82818337600083830152505050565b60005b83811015610b72578082015181840152602081019050610b57565b83811115610b81576000848401525b50505050565b60006002820490506001821680610b9f57607f821691505b60208210811415610bb357610bb2610c48565b5b50919050565b610bc282610ca6565b810181811067ffffffffffffffff82111715610be157610be0610c77565b5b80604052505050565b7f4e487b7100000000000000000000000000000000000000000000000000000000600052601160045260246000fd5b7f4e487b7100000000000000000000000000000000000000000000000000000000600052601260045260246000fd5b7f4e487b7100000000000000000000000000000000000000000000000000000000600052602260045260246000fd5b7f4e487b7100000000000000000000000000000000000000000000000000000000600052604160045260246000fd5b6000601f19601f8301169050919050565b7f4d454449554d0000000000000000000000000000000000000000000000000000600082015250565b7f4c4f4e4700000000000000000000000000000000000000000000000000000000600082015250565b7f53484f5254000000000000000000000000000000000000000000000000000000600082015250565b610d3b81610afd565b8114610d4657600080fd5b50565b610d5281610b3b565b8114610d5d57600080fd5b5056fea26469706673582212200b9a21b4812b416802d432faaf13dedf98f680bdb2f2974d8e80b08e7667c35f64736f6c63430008040033",
  "linkReferences": {},
  "deployedLinkReferences": {}
}