{
  "_format": "hh-sol-artifact-1",
  "contractName": "Lossy",
  "sourceName": "contracts/Lossy.sol",
  "abi": [
    {
      "inputs": [
        {
          "internalType": "uint256",
          "name": "_rate",
          "type": "uint256"
        },
        {
          "internalType": "uint256",
          "name": "_frequency",
          "type": "uint256"
        },
        {
          "internalType": "address payable",
          "name": "_recipient",
          "type": "address"
        }
      ],
      "stateMutability": "nonpayable",
      "type": "constructor"
    },
    {
      "inputs": [],
      "name": "checkIn",
      "outputs": [],
      "stateMutability": "nonpayable",
      "type": "function"
    },
    {
      "inputs": [],
      "name": "frequency",
      "outputs": [
        {
          "internalType": "uint256",
          "name": "",
          "type": "uint256"
        }
      ],
      "stateMutability": "view",
      "type": "function"
    },
    {
      "inputs": [],
      "name": "increaseRate",
      "outputs": [
        {
          "internalType": "uint256",
          "name": "",
          "type": "uint256"
        }
      ],
      "stateMutability": "view",
      "type": "function"
    },
    {
      "inputs": [],
      "name": "lastCheckIn",
      "outputs": [
        {
          "internalType": "uint256",
          "name": "",
          "type": "uint256"
        }
      ],
      "stateMutability": "view",
      "type": "function"
    },
    {
      "inputs": [],
      "name": "rate",
      "outputs": [
        {
          "internalType": "uint256",
          "name": "",
          "type": "uint256"
        }
      ],
      "stateMutability": "view",
      "type": "function"
    },
    {
      "inputs": [],
      "name": "recipient",
      "outputs": [
        {
          "internalType": "address payable",
          "name": "",
          "type": "address"
        }
      ],
      "stateMutability": "view",
      "type": "function"
    },
    {
      "inputs": [
        {
          "internalType": "uint256",
          "name": "_freq",
          "type": "uint256"
        }
      ],
      "name": "setFrequency",
      "outputs": [],
      "stateMutability": "nonpayable",
      "type": "function"
    },
    {
      "inputs": [
        {
          "internalType": "uint256",
          "name": "_rate",
          "type": "uint256"
        }
      ],
      "name": "setRate",
      "outputs": [],
      "stateMutability": "nonpayable",
      "type": "function"
    },
    {
      "inputs": [
        {
          "internalType": "address payable",
          "name": "_recipient",
          "type": "address"
        }
      ],
      "name": "setRecipient",
      "outputs": [],
      "stateMutability": "nonpayable",
      "type": "function"
    },
    {
      "inputs": [],
      "name": "startDate",
      "outputs": [
        {
          "internalType": "uint256",
          "name": "",
          "type": "uint256"
        }
      ],
      "stateMutability": "view",
      "type": "function"
    },
    {
      "inputs": [],
      "name": "userCheckedin",
      "outputs": [
        {
          "internalType": "bool",
          "name": "",
          "type": "bool"
        }
      ],
      "stateMutability": "nonpayable",
      "type": "function"
    }
  ],
  "bytecode": "0x608060405234801561001057600080fd5b506040516107b53803806107b5833981810160405281019061003291906100c1565b8260008190555081600281905550426003819055504260048190555080600560006101000a81548173ffffffffffffffffffffffffffffffffffffffff021916908373ffffffffffffffffffffffffffffffffffffffff16021790555050505061017a565b6000815190506100a68161014c565b92915050565b6000815190506100bb81610163565b92915050565b6000806000606084860312156100d657600080fd5b60006100e4868287016100ac565b93505060206100f5868287016100ac565b925050604061010686828701610097565b9150509250925092565b600061011b82610122565b9050919050565b600073ffffffffffffffffffffffffffffffffffffffff82169050919050565b6000819050919050565b61015581610110565b811461016057600080fd5b50565b61016c81610142565b811461017757600080fd5b50565b61062c806101896000396000f3fe608060405234801561001057600080fd5b50600436106100a95760003560e01c80633bbed4a0116100715780633bbed4a01461012e5780636086cea51461014a57806366d003ac14610168578063db78dabd14610186578063ead50da3146101a4578063f426f03a146101c2576100a9565b80630b97bc86146100ae578063183ff085146100cc5780632a4b122f146100d65780632c4e722e146100f457806334fcf43714610112575b600080fd5b6100b66101de565b6040516100c39190610426565b60405180910390f35b6100d46101e4565b005b6100de6101ed565b6040516100eb9190610426565b60405180910390f35b6100fc6101f3565b6040516101099190610426565b60405180910390f35b61012c6004803603810190610127919061039a565b6101f9565b005b61014860048036038101906101439190610371565b610203565b005b610152610247565b60405161015f919061040b565b60405180910390f35b61017061030b565b60405161017d91906103f0565b60405180910390f35b61018e610331565b60405161019b9190610426565b60405180910390f35b6101ac610337565b6040516101b99190610426565b60405180910390f35b6101dc60048036038101906101d7919061039a565b61033d565b005b60035481565b42600481905550565b60015481565b60005481565b8060008190555050565b80600560006101000a81548173ffffffffffffffffffffffffffffffffffffffff021916908373ffffffffffffffffffffffffffffffffffffffff16021790555050565b60008060025460045461025a9190610441565b90504281111561027557426004819055506001915050610308565b60004790506000606460058361028b91906104c8565b6102959190610497565b9050600560009054906101000a900473ffffffffffffffffffffffffffffffffffffffff1673ffffffffffffffffffffffffffffffffffffffff166108fc829081150290604051600060405180830381858888f193505050501580156102ff573d6000803e3d6000fd5b50600093505050505b90565b600560009054906101000a900473ffffffffffffffffffffffffffffffffffffffff1681565b60045481565b60025481565b8060028190555050565b600081359050610356816105c8565b92915050565b60008135905061036b816105df565b92915050565b60006020828403121561038357600080fd5b600061039184828501610347565b91505092915050565b6000602082840312156103ac57600080fd5b60006103ba8482850161035c565b91505092915050565b6103cc81610522565b82525050565b6103db81610534565b82525050565b6103ea81610560565b82525050565b600060208201905061040560008301846103c3565b92915050565b600060208201905061042060008301846103d2565b92915050565b600060208201905061043b60008301846103e1565b92915050565b600061044c82610560565b915061045783610560565b9250827fffffffffffffffffffffffffffffffffffffffffffffffffffffffffffffffff0382111561048c5761048b61056a565b5b828201905092915050565b60006104a282610560565b91506104ad83610560565b9250826104bd576104bc610599565b5b828204905092915050565b60006104d382610560565b91506104de83610560565b9250817fffffffffffffffffffffffffffffffffffffffffffffffffffffffffffffffff04831182151516156105175761051661056a565b5b828202905092915050565b600061052d82610540565b9050919050565b60008115159050919050565b600073ffffffffffffffffffffffffffffffffffffffff82169050919050565b6000819050919050565b7f4e487b7100000000000000000000000000000000000000000000000000000000600052601160045260246000fd5b7f4e487b7100000000000000000000000000000000000000000000000000000000600052601260045260246000fd5b6105d181610522565b81146105dc57600080fd5b50565b6105e881610560565b81146105f357600080fd5b5056fea2646970667358221220a3e913a5eaea760111984f8b5f0ef0f941ea3075c72b0b0a6e0b09d9d8af2c1f64736f6c63430008040033",
  "linkReferences": {},
  "deployedLinkReferences": {}
}